{
  "transactions": [
    {
      "hash": "0x62aba536e2e608a799026cf7e2b659676d1a0be3839d4c461666282c7fa0b30f",
      "transactionType": "CALL",
      "contractName": null,
      "contractAddress": "0xce745102dded1a38398d341981cbdf002fbf5606",
      "function": "mint(address,uint256)",
      "arguments": [
        "0xe2412Cf34639Dc7C2B702B58d2C153b0C1e686bF",
        "1000000000000"
      ],
      "transaction": {
        "from": "0xe2412cf34639dc7c2b702b58d2c153b0c1e686bf",
        "to": "0xce745102dded1a38398d341981cbdf002fbf5606",
        "gas": "0xb772",
        "value": "0x0",
        "input": "0x40c10f19000000000000000000000000e2412cf34639dc7c2b702b58d2c153b0c1e686bf000000000000000000000000000000000000000000000000000000e8d4a51000",
        "nonce": "0x8",
        "chainId": "0xaa36a7"
      },
      "additionalContracts": [],
      "isFixedGasLimit": false
    },
    {
      "hash": "0xe4efe5fd349f74f21169764818359fa796f77962cd588cf9ff39917e71f9ca5c",
      "transactionType": "CALL",
      "contractName": null,
      "contractAddress": "0x697b4d37536d69b45a0827bf52f702556669fec0",
      "function": "mint(address,uint256)",
      "arguments": [
        "0xe2412Cf34639Dc7C2B702B58d2C153b0C1e686bF",
        "1000000000000000000000000"
      ],
      "transaction": {
        "from": "0xe2412cf34639dc7c2b702b58d2c153b0c1e686bf",
        "to": "0x697b4d37536d69b45a0827bf52f702556669fec0",
        "gas": "0xb7a3",
        "value": "0x0",
        "input": "0x40c10f19000000000000000000000000e2412cf34639dc7c2b702b58d2c153b0c1e686bf00000000000000000000000000000000000000000000d3c21bcecceda1000000",
        "nonce": "0x9",
        "chainId": "0xaa36a7"
      },
      "additionalContracts": [],
      "isFixedGasLimit": false
    },
    {
      "hash": "0x19f36f56f871022af09326cd0a70b8bc90004e4c7d7e12df2643dbc7a38194eb",
      "transactionType": "CALL",
      "contractName": null,
      "contractAddress": "0xd061c725ec61d65d72bcf047cd144fea3d1b2c76",
      "function": "mint(address,uint256)",
      "arguments": [
        "0xe2412Cf34639Dc7C2B702B58d2C153b0C1e686bF",
        "1000000000000000000000000"
      ],
      "transaction": {
        "from": "0xe2412cf34639dc7c2b702b58d2c153b0c1e686bf",
        "to": "0xd061c725ec61d65d72bcf047cd144fea3d1b2c76",
        "gas": "0xb7a3",
        "value": "0x0",
        "input": "0x40c10f19000000000000000000000000e2412cf34639dc7c2b702b58d2c153b0c1e686bf00000000000000000000000000000000000000000000d3c21bcecceda1000000",
        "nonce": "0xa",
        "chainId": "0xaa36a7"
      },
      "additionalContracts": [],
      "isFixedGasLimit": false
    },
    {
      "hash": "0xdeb409f0f76b93b1e829dd15ffad68073054aa87966fb844ae7dea809e84101a",
      "transactionType": "CALL",
      "contractName": null,
      "contractAddress": "0x60fcdc5648cfa474bba9ea8b38abcc682e91b2bb",
      "function": "mint(address,uint256)",
      "arguments": [
        "0xe2412Cf34639Dc7C2B702B58d2C153b0C1e686bF",
        "1000000000000000000000000"
      ],
      "transaction": {
        "from": "0xe2412cf34639dc7c2b702b58d2c153b0c1e686bf",
        "to": "0x60fcdc5648cfa474bba9ea8b38abcc682e91b2bb",
        "gas": "0xb7a3",
        "value": "0x0",
        "input": "0x40c10f19000000000000000000000000e2412cf34639dc7c2b702b58d2c153b0c1e686bf00000000000000000000000000000000000000000000d3c21bcecceda1000000",
        "nonce": "0xb",
        "chainId": "0xaa36a7"
      },
      "additionalContracts": [],
      "isFixedGasLimit": false
    }
  ],
  "receipts": [
    {
      "status": "0x1",
      "cumulativeGasUsed": "0x12f4609",
      "logs": [
        {
          "address": "0xce745102dded1a38398d341981cbdf002fbf5606",
          "topics": [
            "0xddf252ad1be2c89b69c2b068fc378daa952ba7f163c4a11628f55a4df523b3ef",
            "0x0000000000000000000000000000000000000000000000000000000000000000",
            "0x000000000000000000000000e2412cf34639dc7c2b702b58d2c153b0c1e686bf"
          ],
          "data": "0x000000000000000000000000000000000000000000000000000000e8d4a51000",
          "blockHash": "0xf8cb5ddf28dd0f53ac949dc03fa62794d4d8a080fdbbb795934e205f59ec8811",
          "blockNumber": "0x700e5d",
          "transactionHash": "0x62aba536e2e608a799026cf7e2b659676d1a0be3839d4c461666282c7fa0b30f",
          "transactionIndex": "0x3c",
          "logIndex": "0x74",
          "removed": false
        }
      ],
      "logsBloom": "0x00000000000000000000000000000000000000000000000000000000000000000000000000000000000000000000000000000000000000000000000000000000000000000000000000000008000000000000000000000000000000080000000000000000020000000000000000000800000000000000200000000010000000000000800000000000000000000000000000000000000000000000002000000000000000000000000000000000000000000000000000000000000000000000800000000002000000000000000000000000000000000000000000000000000020000000000000000000040000000000000000000000000000000000000000000000",
      "type": "0x2",
      "transactionHash": "0x62aba536e2e608a799026cf7e2b659676d1a0be3839d4c461666282c7fa0b30f",
      "transactionIndex": "0x3c",
      "blockHash": "0xf8cb5ddf28dd0f53ac949dc03fa62794d4d8a080fdbbb795934e205f59ec8811",
      "blockNumber": "0x700e5d",
      "gasUsed": "0x84d0",
      "effectiveGasPrice": "0x1c54438f7e",
      "from": "0xe2412cf34639dc7c2b702b58d2c153b0c1e686bf",
      "to": "0xce745102dded1a38398d341981cbdf002fbf5606",
      "contractAddress": null
    },
    {
      "status": "0x1",
      "cumulativeGasUsed": "0x12fcafd",
      "logs": [
        {
          "address": "0x697b4d37536d69b45a0827bf52f702556669fec0",
          "topics": [
            "0xddf252ad1be2c89b69c2b068fc378daa952ba7f163c4a11628f55a4df523b3ef",
            "0x0000000000000000000000000000000000000000000000000000000000000000",
            "0x000000000000000000000000e2412cf34639dc7c2b702b58d2c153b0c1e686bf"
          ],
          "data": "0x00000000000000000000000000000000000000000000d3c21bcecceda1000000",
          "blockHash": "0xf8cb5ddf28dd0f53ac949dc03fa62794d4d8a080fdbbb795934e205f59ec8811",
          "blockNumber": "0x700e5d",
          "transactionHash": "0xe4efe5fd349f74f21169764818359fa796f77962cd588cf9ff39917e71f9ca5c",
          "transactionIndex": "0x3d",
          "logIndex": "0x75",
          "removed": false
        }
      ],
      "logsBloom": "0x00000000000000000000000000000000000000000000000000000000000000000000000000000000000000000000000000000002000000000000000000000000000000000000000000000008000000000000000000000000000000000000000000000000020000000000000000000800000000000000000000000010000000000000800000000000000000000000001000000000000000000000000000000000000000000000000000000000000000000000000000000000000000000000800000000002000000000000000000000000000000000000000000000000000020000000000000000000040000000000080000000000000000000000000000000000",
      "type": "0x2",
      "transactionHash": "0xe4efe5fd349f74f21169764818359fa796f77962cd588cf9ff39917e71f9ca5c",
      "transactionIndex": "0x3d",
      "blockHash": "0xf8cb5ddf28dd0f53ac949dc03fa62794d4d8a080fdbbb795934e205f59ec8811",
      "blockNumber": "0x700e5d",
      "gasUsed": "0x84f4",
      "effectiveGasPrice": "0x1c54438f7e",
      "from": "0xe2412cf34639dc7c2b702b58d2c153b0c1e686bf",
      "to": "0x697b4d37536d69b45a0827bf52f702556669fec0",
      "contractAddress": null
    },
    {
      "status": "0x1",
      "cumulativeGasUsed": "0x1304ff1",
      "logs": [
        {
          "address": "0xd061c725ec61d65d72bcf047cd144fea3d1b2c76",
          "topics": [
            "0xddf252ad1be2c89b69c2b068fc378daa952ba7f163c4a11628f55a4df523b3ef",
            "0x0000000000000000000000000000000000000000000000000000000000000000",
            "0x000000000000000000000000e2412cf34639dc7c2b702b58d2c153b0c1e686bf"
          ],
          "data": "0x00000000000000000000000000000000000000000000d3c21bcecceda1000000",
          "blockHash": "0xf8cb5ddf28dd0f53ac949dc03fa62794d4d8a080fdbbb795934e205f59ec8811",
          "blockNumber": "0x700e5d",
          "transactionHash": "0x19f36f56f871022af09326cd0a70b8bc90004e4c7d7e12df2643dbc7a38194eb",
          "transactionIndex": "0x3e",
          "logIndex": "0x76",
          "removed": false
        }
      ],
      "logsBloom": "0x00000000000000000000080000000000000000000000000000000000000000000000000000000000000000000000000000000000000000000000000000000000000000000000000000000008000000000000000000000000000000000000000000000000020000000000000000000800000000000000000000000010200000000000800000000000000000000000000000000000000000000000000000000000000000000000000000000000000000000000000000000000000000000000800000000002000000000000000000000000000000000000000000000000000020000000000000000000040001000000000000000000000000000000000000000000",
      "type": "0x2",
      "transactionHash": "0x19f36f56f871022af09326cd0a70b8bc90004e4c7d7e12df2643dbc7a38194eb",
      "transactionIndex": "0x3e",
      "blockHash": "0xf8cb5ddf28dd0f53ac949dc03fa62794d4d8a080fdbbb795934e205f59ec8811",
      "blockNumber": "0x700e5d",
      "gasUsed": "0x84f4",
      "effectiveGasPrice": "0x1c54438f7e",
      "from": "0xe2412cf34639dc7c2b702b58d2c153b0c1e686bf",
      "to": "0xd061c725ec61d65d72bcf047cd144fea3d1b2c76",
      "contractAddress": null
    },
    {
      "status": "0x1",
      "cumulativeGasUsed": "0x130d4e5",
      "logs": [
        {
          "address": "0x60fcdc5648cfa474bba9ea8b38abcc682e91b2bb",
          "topics": [
            "0xddf252ad1be2c89b69c2b068fc378daa952ba7f163c4a11628f55a4df523b3ef",
            "0x0000000000000000000000000000000000000000000000000000000000000000",
            "0x000000000000000000000000e2412cf34639dc7c2b702b58d2c153b0c1e686bf"
          ],
          "data": "0x00000000000000000000000000000000000000000000d3c21bcecceda1000000",
          "blockHash": "0xf8cb5ddf28dd0f53ac949dc03fa62794d4d8a080fdbbb795934e205f59ec8811",
          "blockNumber": "0x700e5d",
          "transactionHash": "0xdeb409f0f76b93b1e829dd15ffad68073054aa87966fb844ae7dea809e84101a",
          "transactionIndex": "0x3f",
          "logIndex": "0x77",
          "removed": false
        }
      ],
      "logsBloom": "0x00000000000000000000000000000000000000000000000000000000000000020000000000000000000000000000000000000000000000000000000000100000000000000000000000000008000000000000000000000000000000000000000000000000020000000000000000000800000000000000000000000010000000000000800000000000000000000000000000000000000000000000000000000000000000000000000000000000000000000000000000000000000000000000800000000002000000000000000000000000000000000000000000000000800020000000000000000000040000000000000000000000000000000000000000000000",
      "type": "0x2",
      "transactionHash": "0xdeb409f0f76b93b1e829dd15ffad68073054aa87966fb844ae7dea809e84101a",
      "transactionIndex": "0x3f",
      "blockHash": "0xf8cb5ddf28dd0f53ac949dc03fa62794d4d8a080fdbbb795934e205f59ec8811",
      "blockNumber": "0x700e5d",
      "gasUsed": "0x84f4",
      "effectiveGasPrice": "0x1c54438f7e",
      "from": "0xe2412cf34639dc7c2b702b58d2c153b0c1e686bf",
      "to": "0x60fcdc5648cfa474bba9ea8b38abcc682e91b2bb",
      "contractAddress": null
    }
  ],
  "libraries": [],
  "pending": [],
  "returns": {},
  "timestamp": 1735025281,
  "chain": 11155111,
  "commit": "f42e08b"
}