{
  "transactions": [
    {
      "hash": "0x2d69b16425f1335baca0c037048f47df62581f4a6114e2ffc5bd99b77e93e82b",
      "transactionType": "CALL",
      "contractName": null,
      "contractAddress": "0xce745102dded1a38398d341981cbdf002fbf5606",
      "function": "mint(address,uint256)",
      "arguments": [
        "0xe2412Cf34639Dc7C2B702B58d2C153b0C1e686bF",
        "1000000000000"
      ],
      "transaction": {
        "from": "0xe2412cf34639dc7c2b702b58d2c153b0c1e686bf",
        "to": "0xce745102dded1a38398d341981cbdf002fbf5606",
        "gas": "0xb772",
        "value": "0x0",
        "input": "0x40c10f19000000000000000000000000e2412cf34639dc7c2b702b58d2c153b0c1e686bf000000000000000000000000000000000000000000000000000000e8d4a51000",
        "nonce": "0x8",
        "chainId": "0x14a34"
      },
      "additionalContracts": [],
      "isFixedGasLimit": false
    },
    {
      "hash": "0xa9ae7202d0514148d382fc4de28db181a99fdf84e5595db968a01f997428efe4",
      "transactionType": "CALL",
      "contractName": null,
      "contractAddress": "0x595078958fcfed581a5245bcd21a51ea4b1cf521",
      "function": "mint(address,uint256)",
      "arguments": [
        "0xe2412Cf34639Dc7C2B702B58d2C153b0C1e686bF",
        "1000000000000000000000000"
      ],
      "transaction": {
        "from": "0xe2412cf34639dc7c2b702b58d2c153b0c1e686bf",
        "to": "0x595078958fcfed581a5245bcd21a51ea4b1cf521",
        "gas": "0xb7a3",
        "value": "0x0",
        "input": "0x40c10f19000000000000000000000000e2412cf34639dc7c2b702b58d2c153b0c1e686bf00000000000000000000000000000000000000000000d3c21bcecceda1000000",
        "nonce": "0x9",
        "chainId": "0x14a34"
      },
      "additionalContracts": [],
      "isFixedGasLimit": false
    },
    {
      "hash": "0xe49545a57a5dfce47b178f5b061c3c16212a44a7f58f373b697e5fa0f8d71f22",
      "transactionType": "CALL",
      "contractName": null,
      "contractAddress": "0xd061c725ec61d65d72bcf047cd144fea3d1b2c76",
      "function": "mint(address,uint256)",
      "arguments": [
        "0xe2412Cf34639Dc7C2B702B58d2C153b0C1e686bF",
        "1000000000000000000000000"
      ],
      "transaction": {
        "from": "0xe2412cf34639dc7c2b702b58d2c153b0c1e686bf",
        "to": "0xd061c725ec61d65d72bcf047cd144fea3d1b2c76",
        "gas": "0xb7a3",
        "value": "0x0",
        "input": "0x40c10f19000000000000000000000000e2412cf34639dc7c2b702b58d2c153b0c1e686bf00000000000000000000000000000000000000000000d3c21bcecceda1000000",
        "nonce": "0xa",
        "chainId": "0x14a34"
      },
      "additionalContracts": [],
      "isFixedGasLimit": false
    },
    {
      "hash": "0x4895e65aa2815352ad35c99d6657c45c858f399d71a1915cc31a525f39289689",
      "transactionType": "CALL",
      "contractName": null,
      "contractAddress": "0x60fcdc5648cfa474bba9ea8b38abcc682e91b2bb",
      "function": "mint(address,uint256)",
      "arguments": [
        "0xe2412Cf34639Dc7C2B702B58d2C153b0C1e686bF",
        "1000000000000000000000000"
      ],
      "transaction": {
        "from": "0xe2412cf34639dc7c2b702b58d2c153b0c1e686bf",
        "to": "0x60fcdc5648cfa474bba9ea8b38abcc682e91b2bb",
        "gas": "0xb7a3",
        "value": "0x0",
        "input": "0x40c10f19000000000000000000000000e2412cf34639dc7c2b702b58d2c153b0c1e686bf00000000000000000000000000000000000000000000d3c21bcecceda1000000",
        "nonce": "0xb",
        "chainId": "0x14a34"
      },
      "additionalContracts": [],
      "isFixedGasLimit": false
    }
  ],
  "receipts": [
    {
      "status": "0x1",
      "cumulativeGasUsed": "0x22236e",
      "logs": [
        {
          "address": "0xce745102dded1a38398d341981cbdf002fbf5606",
          "topics": [
            "0xddf252ad1be2c89b69c2b068fc378daa952ba7f163c4a11628f55a4df523b3ef",
            "0x0000000000000000000000000000000000000000000000000000000000000000",
            "0x000000000000000000000000e2412cf34639dc7c2b702b58d2c153b0c1e686bf"
          ],
          "data": "0x000000000000000000000000000000000000000000000000000000e8d4a51000",
          "blockHash": "0x557820d4069ade1cfe14e061c14e59c0ecdfcc511aa225484f9580beec1b053f",
          "blockNumber": "0x12b838a",
          "transactionHash": "0x2d69b16425f1335baca0c037048f47df62581f4a6114e2ffc5bd99b77e93e82b",
          "transactionIndex": "0x14",
          "logIndex": "0x29",
          "removed": false
        }
      ],
      "logsBloom": "0x00000000000000000000000000000000000000000000000000000000000000000000000000000000000000000000000000000000000000000000000000000000000000000000000000000008000000000000000000000000000000080000000000000000020000000000000000000800000000000000200000000010000000000000800000000000000000000000000000000000000000000000002000000000000000000000000000000000000000000000000000000000000000000000800000000002000000000000000000000000000000000000000000000000000020000000000000000000040000000000000000000000000000000000000000000000",
      "type": "0x2",
      "transactionHash": "0x2d69b16425f1335baca0c037048f47df62581f4a6114e2ffc5bd99b77e93e82b",
      "transactionIndex": "0x14",
      "blockHash": "0x557820d4069ade1cfe14e061c14e59c0ecdfcc511aa225484f9580beec1b053f",
      "blockNumber": "0x12b838a",
      "gasUsed": "0x84d0",
      "effectiveGasPrice": "0x18894",
      "from": "0xe2412cf34639dc7c2b702b58d2c153b0c1e686bf",
      "to": "0xce745102dded1a38398d341981cbdf002fbf5606",
      "contractAddress": null,
      "l1BaseFeeScalar": "0x44d",
      "l1BlobBaseFee": "0x10073bc9d",
      "l1BlobBaseFeeScalar": "0xa118b",
      "l1Fee": "0x8f4a0e6e31",
      "l1GasPrice": "0x2bd118fbd3",
      "l1GasUsed": "0x640"
    },
    {
      "status": "0x1",
      "cumulativeGasUsed": "0x3b75ca",
      "logs": [
        {
          "address": "0x595078958fcfed581a5245bcd21a51ea4b1cf521",
          "topics": [
            "0xddf252ad1be2c89b69c2b068fc378daa952ba7f163c4a11628f55a4df523b3ef",
            "0x0000000000000000000000000000000000000000000000000000000000000000",
            "0x000000000000000000000000e2412cf34639dc7c2b702b58d2c153b0c1e686bf"
          ],
          "data": "0x00000000000000000000000000000000000000000000d3c21bcecceda1000000",
          "blockHash": "0x557820d4069ade1cfe14e061c14e59c0ecdfcc511aa225484f9580beec1b053f",
          "blockNumber": "0x12b838a",
          "transactionHash": "0xa9ae7202d0514148d382fc4de28db181a99fdf84e5595db968a01f997428efe4",
          "transactionIndex": "0x1d",
          "logIndex": "0x5a",
          "removed": false
        }
      ],
      "logsBloom": "0x00000000000000000000000000000000000000000000000000000000000000000000000000000000000000000000000000000000000000000000000000000010000000000000000000000008000000000000000000000000000000000000000000000000020000000000000000100800000000000000000000000010000000000000800000000000000020000000000000000000000000000000000000000000000000000000000000000000000000000000000000000000000000000000800000000002000000000000000000000000000000000000000000000000000020000000000000000000040000000000000000000000000000000000000000000000",
      "type": "0x2",
      "transactionHash": "0xa9ae7202d0514148d382fc4de28db181a99fdf84e5595db968a01f997428efe4",
      "transactionIndex": "0x1d",
      "blockHash": "0x557820d4069ade1cfe14e061c14e59c0ecdfcc511aa225484f9580beec1b053f",
      "blockNumber": "0x12b838a",
      "gasUsed": "0x84f4",
      "effectiveGasPrice": "0x18894",
      "from": "0xe2412cf34639dc7c2b702b58d2c153b0c1e686bf",
      "to": "0x595078958fcfed581a5245bcd21a51ea4b1cf521",
      "contractAddress": null,
      "l1BaseFeeScalar": "0x44d",
      "l1BlobBaseFee": "0x10073bc9d",
      "l1BlobBaseFeeScalar": "0xa118b",
      "l1Fee": "0x8f4a0e6e31",
      "l1GasPrice": "0x2bd118fbd3",
      "l1GasUsed": "0x640"
    },
    {
      "status": "0x1",
      "cumulativeGasUsed": "0x3bfabe",
      "logs": [
        {
          "address": "0xd061c725ec61d65d72bcf047cd144fea3d1b2c76",
          "topics": [
            "0xddf252ad1be2c89b69c2b068fc378daa952ba7f163c4a11628f55a4df523b3ef",
            "0x0000000000000000000000000000000000000000000000000000000000000000",
            "0x000000000000000000000000e2412cf34639dc7c2b702b58d2c153b0c1e686bf"
          ],
          "data": "0x00000000000000000000000000000000000000000000d3c21bcecceda1000000",
          "blockHash": "0x557820d4069ade1cfe14e061c14e59c0ecdfcc511aa225484f9580beec1b053f",
          "blockNumber": "0x12b838a",
          "transactionHash": "0xe49545a57a5dfce47b178f5b061c3c16212a44a7f58f373b697e5fa0f8d71f22",
          "transactionIndex": "0x1e",
          "logIndex": "0x5b",
          "removed": false
        }
      ],
      "logsBloom": "0x00000000000000000000080000000000000000000000000000000000000000000000000000000000000000000000000000000000000000000000000000000000000000000000000000000008000000000000000000000000000000000000000000000000020000000000000000000800000000000000000000000010200000000000800000000000000000000000000000000000000000000000000000000000000000000000000000000000000000000000000000000000000000000000800000000002000000000000000000000000000000000000000000000000000020000000000000000000040001000000000000000000000000000000000000000000",
      "type": "0x2",
      "transactionHash": "0xe49545a57a5dfce47b178f5b061c3c16212a44a7f58f373b697e5fa0f8d71f22",
      "transactionIndex": "0x1e",
      "blockHash": "0x557820d4069ade1cfe14e061c14e59c0ecdfcc511aa225484f9580beec1b053f",
      "blockNumber": "0x12b838a",
      "gasUsed": "0x84f4",
      "effectiveGasPrice": "0x18894",
      "from": "0xe2412cf34639dc7c2b702b58d2c153b0c1e686bf",
      "to": "0xd061c725ec61d65d72bcf047cd144fea3d1b2c76",
      "contractAddress": null,
      "l1BaseFeeScalar": "0x44d",
      "l1BlobBaseFee": "0x10073bc9d",
      "l1BlobBaseFeeScalar": "0xa118b",
      "l1Fee": "0x8f4a0e6e31",
      "l1GasPrice": "0x2bd118fbd3",
      "l1GasUsed": "0x640"
    },
    {
      "status": "0x1",
      "cumulativeGasUsed": "0x3c7fb2",
      "logs": [
        {
          "address": "0x60fcdc5648cfa474bba9ea8b38abcc682e91b2bb",
          "topics": [
            "0xddf252ad1be2c89b69c2b068fc378daa952ba7f163c4a11628f55a4df523b3ef",
            "0x0000000000000000000000000000000000000000000000000000000000000000",
            "0x000000000000000000000000e2412cf34639dc7c2b702b58d2c153b0c1e686bf"
          ],
          "data": "0x00000000000000000000000000000000000000000000d3c21bcecceda1000000",
          "blockHash": "0x557820d4069ade1cfe14e061c14e59c0ecdfcc511aa225484f9580beec1b053f",
          "blockNumber": "0x12b838a",
          "transactionHash": "0x4895e65aa2815352ad35c99d6657c45c858f399d71a1915cc31a525f39289689",
          "transactionIndex": "0x1f",
          "logIndex": "0x5c",
          "removed": false
        }
      ],
      "logsBloom": "0x00000000000000000000000000000000000000000000000000000000000000020000000000000000000000000000000000000000000000000000000000100000000000000000000000000008000000000000000000000000000000000000000000000000020000000000000000000800000000000000000000000010000000000000800000000000000000000000000000000000000000000000000000000000000000000000000000000000000000000000000000000000000000000000800000000002000000000000000000000000000000000000000000000000800020000000000000000000040000000000000000000000000000000000000000000000",
      "type": "0x2",
      "transactionHash": "0x4895e65aa2815352ad35c99d6657c45c858f399d71a1915cc31a525f39289689",
      "transactionIndex": "0x1f",
      "blockHash": "0x557820d4069ade1cfe14e061c14e59c0ecdfcc511aa225484f9580beec1b053f",
      "blockNumber": "0x12b838a",
      "gasUsed": "0x84f4",
      "effectiveGasPrice": "0x18894",
      "from": "0xe2412cf34639dc7c2b702b58d2c153b0c1e686bf",
      "to": "0x60fcdc5648cfa474bba9ea8b38abcc682e91b2bb",
      "contractAddress": null,
      "l1BaseFeeScalar": "0x44d",
      "l1BlobBaseFee": "0x10073bc9d",
      "l1BlobBaseFeeScalar": "0xa118b",
      "l1Fee": "0x8f4a0e6e31",
      "l1GasPrice": "0x2bd118fbd3",
      "l1GasUsed": "0x640"
    }
  ],
  "libraries": [],
  "pending": [],
  "returns": {},
  "timestamp": 1735026165,
  "chain": 84532,
  "commit": "f42e08b"
}